:020000040800F2
:10000000900D00204D020008ED3700088D2F0008EC
:100010001D3700088508000825440008000000007E
:100020000000000000000000000000003D3A000851
:10003000310C000800000000513800083F3A000869
:1000400067020008670200086702000867020008EC
:1000500067020008670200086702000867020008DC
:1000600067020008670200086702000867020008CC
:1000700067020008670200086702000867020008BC
:1000800067020008C10A000867020008670200084A
:100090008908000867020008670200086702000874
:1000A000670200086702000867020008670200088C
:1000B000E93A00081D3D00086702000867020008D1
:1000C000670200086702000867020008670200086C
:1000D00067020008FD430008670200086702000885
:1000E000670200086702000867020008670200084C
:1000F000670200086702000867020008670200083C
:10010000670200086702000867020008670200082B
:10011000670200086702000867020008670200081B
:1001200067020008CD0A0008D90A00086702000823
:1001300067020008670200086702000867020008FB
:1001400095080008670200086702000867020008B7
:1001500067020008670200086702000811440008EF
:1001600067020008670200086702000867020008CB
:10017000670200086702000867020008000000002C
:100180006702000867020008670200082D400008A7
:10019000670200086702000867020008670200089B
:1001A00000000000000000006702000800F002F8F4
:1001B00000F03CF80AA090E8000C82448344AAF1C5
:1001C0000107DA4501D100F031F8AFF2090EBAE8C3
:1001D0000F0013F0010F18BFFB1A43F0010318477B
:1001E000985B0000B85B0000103A24BF78C878C163
:1001F000FAD8520724BF30C830C144BF04680C602D
:10020000704700000023002400250026103A28BF74
:1002100078C1FBD8520728BF30C148BF0B60704778
:100220001FB505F016FD1FBD10B510BD00F0E2F8BA
:100230001146FFF7F5FF04F093FE00F000F903B458
:10024000FFF7F2FF03BC00F003F900000948804704
:1002500009480047FEE7FEE7FEE7FEE7FEE7FEE7A8
:10026000FEE7FEE7FEE7FEE704480549054A064BC0
:1002700070470000D93A0008AD010008900700203F
:10028000900D0020900900209009002053EA020CF4
:1002900000F069802DE9F04B4FF00006002B1FBFE6
:1002A000B3FA83F503FA05F424FA05F65E4012BFAB
:1002B0001643B2FA82F502FA05F4C5F120051EBF15
:1002C00022FA05FC44EA0C04203556EA044C4FEAB5
:1002D000144418BF641C4FF000084FF0000990420E
:1002E00071EB030C39D3002919BFB1FA81F701FA78
:1002F00007F6B0FA80F700FA07F6C7F120071EBF2D
:1003000020FA07FC46EA0C062037B6FBF4FCA7EB04
:100310000507103F07F01F0BCBF120060CFA0BFB73
:100320002CFA06F644BFB3460026202FA4BF5E4633
:100330004FF0000B5BEA060C08BF4FF0010B19EB06
:100340000B09ABFB027C48EB0608C01B06FB02CC8A
:100350000BFB03CC71EB0C01C1E70B460246414697
:100360004846BDE8F08B13B54FF000004FF0000198
:10037000AFF30080BDE81C4070474FF0000200B5AD
:10038000134694469646203922BFA0E80C50A0E8B8
:100390000C50B1F12001BFF4F7AF090728BFA0E866
:1003A0000C5048BF0CC05DF804EB890028BF40F832
:1003B000042B08BF704748BF20F8022B11F0804F74
:1003C00018BF00F8012B704770477047704710B591
:1003D00000F008F8006810BD10B5044600F002F8FF
:1003E000046010BD00487047300700200048704787
:1003F000300700207546FFF7F9FFAE460500694655
:10040000534620F00700854618B020B5FFF72CFFB3
:10041000BDE820404FF000064FF000074FF0000805
:100420004FF0000B21F00701AC46ACE8C009ACE886
:10043000C009ACE8C009ACE8C0098D46704710B5EA
:100440000446AFF300802046BDE81040FFF7F7BE3A
:1004500001491820ABBEFEE72600020070470028C5
:1004600001DA404200B2704700B5DFED542AB6EE23
:10047000001AF6EE000AB0EE622AF0EE621AB2EE50
:100480000E0A4F4804F029F84D48B0EE622AF0EE0B
:10049000621AB6EE001AF6EE000AB2EE0E0A283024
:1004A00004F01BF84648B0EE622AF0EE621AB6EE8F
:1004B000001AF6EE000AB2EE0E0A503004F00DF803
:1004C0003F48B0EE622AF0EE621AB6EE001AF6EE7F
:1004D000000AB2EE0E0A783003F0FFFF3848B0EEA3
:1004E000622AF0EE621AB6EE001AF6EE000AB2EEDA
:1004F0000E0AA03003F0F1FFDFED322A3048B6EEED
:10050000001AB0EE622AF0EE621AF6EE000AB2EEBF
:100510000E0AC83003F0E1FF2948B0EE622AF0EE7F
:10052000621AB6EE001AF6EE000AB2EE0E0AF030CB
:1005300003F0D3FFB0EE622AF0EE621AB6EE001AB4
:10054000F6EE000AB2EE0E0A1F4803F0C6FF9FED5A
:100550001F3ADFED1F3A1C48F2EE002AB0EE432AA4
:10056000F0EE431AB2EE001AF0EE630AB2EE040A9D
:10057000283003F058FF1448F2EE002AB0EE432A68
:10058000F0EE431AB2EE001AF0EE630AB2EE040A7D
:10059000503003F048FF0C48DFED0E2AB0EE432A3E
:1005A000F0EE431AB1EE081AF0EE630A9FED0A0A64
:1005B00078305DF804EB03F036BF000000007A46A7
:1005C0007805002000401C469006002000C0DA4557
:1005D000000000000000C842CDCCCC3E10B504465F
:1005E000C088002827D0087B18B92088C88001203F
:1005F000087320888880CB88C01A03B20B81002B37
:1006000001DD981A00E0981808804B8000B2FFF7CF
:1006100026FF0246B1F90200FFF721FF824201DA0C
:10062000088800E048884881B1F90A20A068104491
:10063000A0608888C88010BD70B50C462DED068B73
:10064000F0EE608AB0EE40AA054610FB05F011FB03
:10065000040000EE100AB8EEC08A18EE100A05F089
:1006600087FA41EC100B04F077FB51EC100B04F00F
:1006700079FF9FED2A0ADFED2A0A00B238EE000A60
:100680009FED281A70EE600A00EE100A2846B8EEB8
:10069000C00A20EE010A80EE808A04F092FF41EC4D
:1006A000190B204604F08DFF41EC100BB0EE491AF7
:1006B000F0EE691A04F058FAB0EE409AF0EE609A43
:1006C00018EE100A05F054FA41EC100B03F034FF59
:1006D000B0EE401AF0EE601A53EC192B51EC110BEE
:1006E00004F040FD9FED101B53EC112B04F080FF34
:1006F0009FED0F1B53EC112B04F0DCFD04F000FD0B
:1007000000EE100A30EE4A0A20EE280ABDEC068BF5
:10071000BDEEC00A10EE100A00B270BD14CE8E44B9
:1007200085F3884433338742000000000080664030
:1007300000000020FF21094070B50C462DED068B0E
:10074000B0EE60AAF0EE40AA054610FB05F011FBE2
:10075000040000EE100AB8EEC08A18EE100A05F088
:1007600007FA41EC100B04F0F7FA51EC100B04F00F
:10077000F9FE9FED3B0ADFED3B0A00B238EE000ABE
:100780009FED391A70EE600A00EE100A2846B8EEA6
:10079000C00A20EE010AC0EE808A9FED340ADFED28
:1007A000340A30EE480A80EE208A04F00AFF41EC59
:1007B000190B204604F005FF41EC100BB0EE491A6E
:1007C000F0EE691A04F0D0F9B0EE409AF0EE609ABB
:1007D00018EE900A05F0CCF941EC100B03F0ACFEDA
:1007E000B0EE401AF0EE601A53EC192B51EC110BDD
:1007F00004F0B8FC04F084FC044618EE100A05F07E
:10080000B7F941EC100B03F097FEB0EE408AF0EE22
:10081000608A204605F0ACF953EC182B04F0A2FCDA
:100820009FED148B53EC182B04F0E2FE9FED131B8D
:1008300053EC112B04F03EFD53EC182B05F0AEF8F1
:1008400004F05EFC00EE100A30EE6A0A20EE0A0A9E
:10085000BDEC068BBDEEC00A10EE100A00B270BDF2
:1008600014CE8E4485F3884433338742CCE00B4565
:10087000F5D80B4500000000008066400000002015
:10088000FF210940FEE70000014800F0FEBB000028
:1008900064000020014800F0F8BB00008C0000203C
:1008A0002DE9F04194B000240125CDE906454FF42F
:1008B000FC48CDE90284AE03CDE9006404940E2720
:1008C000CDE9085769460A48059400F0E3FACDE9F6
:1008D0001045CDE90A64CDE90C84CDE90E470AA99B
:1008E0000448129500F0D6FA14B0BDE8F08100007B
:1008F000640000208C000020F0B5174D1748A9892E
:10090000AC8801EB810203888188E61850183044D6
:10091000CE1A1644264437B25E1A0FFA80FC1048ED
:1009200016441944A0F80CC02644611A878436B2D4
:100930001144868709B2A0F85410EA8B002A09D026
:100940004FEA4C0282817A008284720082874900D9
:10095000A0F85410F0BD00009C0300204C000020C3
:100960003C0400200548018D408D084304D009B1A6
:1009700000F016B800F004B800F022B89C03002084
:1009800010B5064C00220821204601F098F92046B7
:100990000122BDE81040202101F091B9001C024065
:1009A00010B5064C01220821204601F088F92046A6
:1009B0000022BDE81040202101F081B9001C024056
:1009C00010B5064C00220821204601F078F9204697
:1009D0000022BDE81040202101F071B9001C024046
:1009E00030B5364A9178D378890941EA8303117981
:1009F000108843EA8123C0F30A004C085179A0F51E
:100A0000806000EB4005C3F30A0302F1240044EACE
:100A1000C114A3F58063C4F30A04858003EB430388
:100A20000380A4F5806404EB440343808B09837244
:100A3000C1F30111C172118AC1F30A01A1F58061EC
:100A40000181D189818201F00103C382C1F3400396
:100A50000383C1F380034383C1F3C0038383C1F3E2
:100A60000013C383C1F340130384C1F38013438491
:100A7000C1F3C0138384C1F30023C384C1F34023B3
:100A80000385C1F380234385C1F3C0238385C1F36C
:100A90000033C385C1F340330386C1F380334386FB
:100AA000C90B8186D18881811189C18151890182D7
:100AB000117B8174517BC17430BD0000780300202C
:100AC000014800F06BBE000058020020014800F011
:100AD00065BE000018030020014800F05FBE000062
:100AE000B802002001681823CAB2103AB2FBF3F230
:100AF000054B6FF30901032A9B5CC36500D9091DEF
:100B00008165084670470000665C000810B5014624
:100B100000208B698A6A4FF0C07453B1B3F5005F4F
:100B200015D072B1012A0CD0022A0AD0032A09D1A9
:100B300004E01AB1012A06D0022A03D1C96AC90108
:100B400000D5012010BDC96AA142FAD010BD002A0B
:100B5000F7D0012AF2D0022AF3D0032AF3D010BD35
:100B600030B50468256825F4802525600468636035
:100B70008368402B036803D099600068C26030BD71
:100B80009A600068C16030BD70B5264A26484FF4AF
:100B90007A74D38A0168012B01D023B107E0A14206
:100BA00005DA891C02E0002901DD891E0160168B2F
:100BB0001E49012E01D02EB109E005688D4206DDE7
:100BC000AD1E03E00568002D01DAAD1C05600025AF
:100BD000012B02D1012E00D10560938B012B01D096
:100BE00033B10AE04668A64207DAB61C466004E064
:100BF0004468002C01DDA41E4460528B012A05D0FC
:100C000052B102D1012B00D1456070BD42688A42C9
:100C1000F8DD921E4260F5E741680029F5DA891C8B
:100C2000416070BD9C0300204C00002018FCFFFFB9
:100C3000704772B6FEE70000074882B0006801689E
:100C400041680091C16841F01001C160162203495A
:100C5000014802B002F082B98C010020FC0400209F
:100C600070B51E4C2DED048B2078552832D1B4F987
:100C7000020004F0A6FC9FED1A8B53EC182B04F035
:100C8000B7FC9FED199B53EC192B04F0B1FC04F059
:100C900037FA04F12C052860B4F9040004F091FC43
:100CA00053EC182B04F0A4FC53EC192B04F0A0FC1B
:100CB00004F026FA6860B4F9060004F082FC53ECF4
:100CC000182B04F095FC53EC192B04F091FC04F064
:100CD00017FAA860BDEC048B70BD0000FC04002076
:100CE000000000000000003F00000000008066409F
:100CF000074882B00068016841680091C16841F00E
:100D00001001C16016220349014802B002F026B961
:100D1000140200201205002070B51E4C2DED048B2E
:100D20002078552832D1B4F9020004F04AFC9FED36
:100D30001A8B53EC182B04F05BFC9FED199B53ECC2
:100D4000192B04F055FC04F0DBF904F122052860AE
:100D5000B4F9040004F035FC53EC182B04F048FC03
:100D600053EC192B04F044FC04F0CAF96860B4F9A0
:100D7000060004F026FC53EC182B04F039FC53EC6D
:100D8000192B04F035FC04F0BBF9A860BDEC048B12
:100D900070BD000012050020000000000000003FB0
:100DA000000000000080664090F82020012A07D053
:100DB000022A05D0416A41F4802141620120704736
:100DC000006842690A43426100207047F0B590F81C
:100DD00020500468A468012D05D0022D03D0416A7B
:100DE00041F4802153E014F0406F01D1E5004BD570
:100DF000C4F30164022C03D9416A41F4000146E0C6
:100E00000125A5401D608D684FF4C0739DB1CE686B
:100E100035434E6845EAC605066803EB0417F551ED
:100E20004FF4C275076805EB04150E697E51097D04
:100E3000012905D009E00E88CD6845EA4655EBE763
:100E400001684E5946F480764E511179D2F805501A
:100E50004FF4C67641EA0525016806EB04168D516C
:100E60001178D2F801204FF4C47541EA02210268DA
:100E700005EB04155151006803EB0411425842F090
:100E8000010242500020F0BD416A41F4001141626C
:100E90000120F0BD10B590F82020012A07D0022AC9
:100EA00005D0416A41F480214162012010BD3B48D8
:100EB000D0F8002242F00102C0F80022D0F800224F
:100EC00022F47C52C0F80022D0F800224B6A42EA99
:100ED0000322C0F800220A7D02F01F0301229A407B
:100EE000D0F81C329343C0F81C32CB69B3B9D0F8A8
:100EF0000C329343C0F80C328C894B6864F31F4367
:100F00004C6900EBC404C4F840320C890B6864F3EC
:100F10001F434C6900EBC404C4F84432CB69012B75
:100F200016D1D0F80C321343C0F80C320C884B6841
:100F300064F31F434C6900EBC404C4F840320C89CD
:100F4000CB6864F31F434C6900EBC404C4F844321B
:100F50008B69002BD0F804320ED01343C0F8043252
:100F60000B69002BD0F8143208D01343C0F81432A8
:100F7000096A012904D008E09343EFE79343F5E7BA
:100F8000D0F81C121143C0F81C12D0F8001221F046
:100F90000101C0F80012002010BD000000640040F4
:100FA000704730B590F82040012C05D0022C03D0BA
:100FB000416A41F480215DE00468002955D024692C
:100FC000A40754D04FF4D874056804EB01142D59CC
:100FD00015F00405956005682D594ED0ED08556053
:100FE00005682C5904F00204D4604FF4DA740568E3
:100FF00004EB01142D5905F00F05156105682D59F5
:10100000C5F30725956105682C59240C54614FF4EC
:10101000DC72046802EB0112A4581C700468A45826
:10102000240A5C700468A458240C9C700468A258BC
:10103000120EDA704FF4DE72046802EB0112A4584B
:101040001C710468A458240A5C710468A458240C18
:101050009C710468A258120EDA71006881B10169AE
:1010600041F020010161002030BDE468A8E7416A39
:1010700041F400114162012030BD6D0D1560AFE7F4
:10108000C16841F02001C160EDE72DE9F05F054640
:10109000006800244669D0F804908768D0F80CB046
:1010A000D0F810A0D0F81880F10748D0F90714D074
:1010B00001218160B80703D5284600F00EFB0CE043
:1010C000780702D54FF4006407E0380702D54FF4E3
:1010D000805402E0284600F0FFFAF80516D529688A
:1010E0004FF480708860B80503D5284600F0F7FA01
:1010F0000CE0780502D544F4005407E0380502D529
:1011000044F4804402E0284600F0E8FAF80316D5DB
:1011100029684FF480308860B80303D5284600F072
:10112000E0FA0CE0780302D544F4004407E0380309
:1011300002D544F4803402E0284600F0D1FA3007AA
:1011400007D55FEACB6004D52968102044F4007409
:10115000C86070074FF0080707D55FEA0B7004D529
:101160002868C760284600F099F9B00706D52868B6
:10117000C068800702D0284600F092F9700607D5B3
:101180005FEACA6004D52968102044F480640861CD
:10119000B00607D55FEA0A7004D5286807612846BB
:1011A00000F06AFAF00606D528680069800702D0C8
:1011B000284600F062FAB00308D55FEAC96005D599
:1011C000296810204860284600F058FAF00307D537
:1011D0005FEA097004D528684760284600F082FA63
:1011E000300446D55FEA497040D5F00504D55FEA82
:1011F000C87001D044F00104B00504D55FEA8870DE
:1012000001D544F00204700504D55FEA487001D5A9
:1012100044F00404300529D518F0700F26D008F0EA
:101220007000402815D006DC102809D020280AD0EC
:10123000302816D10AE050280ED0602811D10EE0D7
:1012400044F008040DE044F010040AE044F02004E7
:1012500007E044F0400404E044F0800401E044F47A
:1012600080742868816921F07001816129680420F7
:101270004860002C05D0686A204368622846FFF762
:101280008FFEBDE8F09F70B5040003D094F82000F5
:1012900010B104E0012070BD204600F081F8206804
:1012A000016841F00101016000F00EFD05460526D0
:1012B00004E000F009FD401B0A2811D820684068AE
:1012C000C007F6D02068016821F00201016000F03B
:1012D000FBFC05460BE000F0F7FC401B0A2806D992
:1012E000606A40F40030606284F82060D2E72068D1
:1012F00040688007EFD4207E0128206801683DD037
:1013000021F080010160607E01282068016838D0EA
:1013100021F040010160A07E01282068016833D0DF
:1013200021F020010160E07E0128206801682ED0B4
:1013300041F010010160207F01282068016829D058
:1013400021F008010160607F01282068016824D035
:1013500021F004010160D4E902010843D4E9041238
:10136000114308436168491E08432168C861002091
:101370006062012084F82000002070BD41F08001EF
:10138000C0E741F04001C5E741F02001CAE721F084
:101390001001CFE741F00801D4E741F00401D9E79B
:1013A000F0B587B0044614216846FEF7E6FF364BD9
:1013B0003648DFF8D0E01968D4F800C0334A032576
:1013C0000226092710300024491CF44522D1196057
:1013D000012907D1016841F000710160006800F047
:1013E00000700590106840F0080010601068CDE9AA
:1013F000005600F00800CDE9047069462448CDE9A4
:10140000024500F03DFB00220121142000F0CAFC3F
:10141000142033E0DFF87CE0F44531D1D0F800C08F
:101420004CF0806CC0F800C0D0F800C001290CF06E
:10143000806CCDF814C0196007D1016841F00071CB
:101440000160006800F000700590106840F0020034
:101450001060106802AB00F0020005904FF440509D
:10146000CDE9000683E8B00069460B4800F008FBB0
:1014700000221146402000F095FC402000F084FC42
:1014800007B0F0BD0064004000000020303802408A
:10149000000C024000680040000402407047000059
:1014A0002DE9F0416E4F6F4D6F4C06464FF40058DA
:1014B000B8426FD105F11C03A4F13802002138466F
:1014C000FFF76FFDA4F13800016805F11C00A1F2DF
:1014D000012105294ED2DFE801F00316222E3E003D
:1014E000018849BA2180418849BA6180818849BA16
:1014F000A1808079E0805D4890ED080ABDEEC00AC9
:1015000085ED020A36E0018849BA2183418849BA4B
:101510006183818849BAA1838079E0832AE00188C8
:1015200049BA2186418849BA6186818849BAA1862B
:101530008079E0861EE0018849BAA4F84810418805
:1015400049BAA4F84A10818849BAA4F84C108079A5
:10155000A4F84E000EE0018849BAA4F86010418852
:1015600049BAA4F86210818849BAA4F86410807955
:10157000A4F8660002213A48FFF716FC20B138684B
:10158000416941F0020141613748424638496030C3
:10159000FFF724F8374FBE4254D1324B324A24333E
:1015A0001C3A00213846FFF7FCFC2F4801211C386B
:1015B00002682C48A2F500722430063A04D0012AB1
:1015C00010D0022A28D11BE0028852BA24F8782FC2
:1015D000428852BA6280828852BAA2808079E080C2
:1015E000296019E0028852BA24F8902F428852BA32
:1015F0006280828852BAA2808079E08069600BE0C4
:10160000018849BA24F8A81F418849BA61808188B5
:1016100049BAA1808079E080154913484446424682
:101620000E317830FEF7DAFF11490F4822461C319F
:101630009030FEF7D3FF0E490B4822462A31A830DE
:1016400002F0D5F802210B48FFF7AEFB002804D0CA
:101650003868416941F002014161BDE8F081000054
:1016600064000020200000203C04002078050020B9
:10167000400500208C000020704770477047000034
:1016800070B5044690F82000012804D0606A40F448
:101690000020606218E0022084F8200020680168C1
:1016A00021F00101016000F00FFB05460EE000BFD4
:1016B00000F00AFB401B0A2808D9606A40F4003099
:1016C0006062052084F82000012070BD2068406819
:1016D000C007EDD1606270BD7047704770477047BA
:1016E0007047704770472DE9F0410446876D00F060
:1016F000EBFA064694F835000025022806D0802033
:10170000606584F834500120BDE8F08120680168EC
:1017100021F0160101602068416921F080014161DA
:10172000206C08B9A06C20B12068016821F0080184
:1017300001602068016821F0010101600CE000F007
:10174000C3FA801B052807D920206065032084F890
:10175000350084F83450D7E720680068C007EED120
:1017600094F85C103F208840B860012084F8350070
:1017700084F834500020C7E790F83510022903D0D0
:101780008021416501207047052180F835100068EF
:10179000016821F001010160002070472DE9F84344
:1017A00004464FF00009CDF8009063484FF41651FD
:1017B000A56D0068B0FBF1F72E6894F85C10082066
:1017C00000FA01F131420FD021680A6852070BD5A7
:1017D0000A6822F004020A6094F85C108840A8604D
:1017E000606D40F00100606594F85C104FF00108F6
:1017F00008FA01F0304208D021684969090604D589
:10180000A860606D40F00200606594F85C100420F0
:101810008840304208D021680968890704D5A8604B
:10182000606D40F00400606594F85C101020884002
:10183000304218D021680968090714D5A8602068CB
:101840000168490304D50068000308D5A16C07E0CE
:101850000168C90503D4016821F008010160216C09
:1018600009B12046884794F85C1020208840304217
:1018700031D021680968C9062DD5A86094F83500D3
:1018800005282068016806D0490347D50068000391
:101890001DD4616C1CE021F01601016020684169D3
:1018A00021F080014161206C08B9A06C20B1206852
:1018B000016821F00801016094F85C103F20884025
:1018C000A86084F8358084F83490216D1FE0E16BC6
:1018D00009B120468847606D00282BD0606DC00795
:1018E00014D0052084F835002068016821F001013A
:1018F00001600098401C0090B84203D8206800683E
:10190000C007F6D184F8358084F83490E16C002962
:1019100010D001B02046BDE8F04308470168C90572
:10192000D5D4016821F01001016084F8358084F875
:101930003490CCE7BDE8F883180000202DE9F04191
:10194000044600F0C1F906465CB1022084F8350077
:10195000002584F834502068016821F001010160FD
:101960000DE00120BDE8F08100F0AEF9801B0528F4
:1019700005D920206065032084F83500F2E720684F
:101980000068C007F0D12268116820480140D4E9FE
:1019900001031843D4E903363343184363691843FA
:1019A000A3691843E3691843236A18430843616A2B
:1019B000042903D1D4E90B131943084310602068AC
:1019C0004069666A20F0070130460E43012704286B
:1019D0000CD1A06A0643E06A40B12046FFF796F8B2
:1019E00020B14020606584F83570BAE72068466110
:1019F0002046FFF777F894F85C203F219140816002
:101A0000656584F835700020ACE700003F8010F079
:101A10002DE9F0410446866D90F834000025012838
:101A20000DD0012084F8340094F835700020012F87
:101A300007D084F8340002252846BDE8F081022052
:101A4000FBE7022784F8357060652046FFF788F8C9
:101A500094F85C103F208840B0602068016841F035
:101A600016010160206C20B12068016841F0080176
:101A700001602068016841F001010160DCE70000BD
:101A80002DE9F84FDFF8F8A1002201240AF1040B38
:101A900003254FF00F090BF1040E00BF0B6804FA89
:101AA00002F63340B34270D10F7907F00307012FDC
:101AB00001D0022F16D187684FEA420805FA08FCC8
:101AC00027EA0C07D1F80CC00CFA08FC4CEA070C0A
:101AD000C0F808C04768B7430E79C6F300169640B1
:101AE0003E4346600E79F643B6070AD0C7684FEA10
:101AF000420C05FA0CF6B7438E6806FA0CF63E4324
:101B0000C6600E7906F00306022E10D1D60800EB4F
:101B10008608D8F8206057074FEAD76C09FA0CF707
:101B2000BE430F6907FA0CF73743C8F82070066800
:101B30004FEA420C05FA0CF7BE430F7907F0030792
:101B400007FA0CF7374307604E6816F4403F1CD085
:101B50004C4E376847F480473760366822F00307F9
:101B600006F480460096484E07EB060CDCF8086841
:101B700097073F0F09FA07F826EA0806DFF80C81F5
:101B8000404503D14FF0000841E072E0DFF80081EA
:101B9000404502D14FF0010839E0DFF8F8804045B8
:101BA00002D14FF0020832E0DFF8EC80404502D16C
:101BB0004FF003082BE0DFF8E480404502D14FF0FE
:101BC000040824E0DFF8D880404502D14FF0050832
:101BD0001DE0DFF8D080404502D14FF0060816E046
:101BE000DFF8C480404502D14FF007080FE0DFF86E
:101BF000BC80404502D14FF0080808E0DFF8B08013
:101C0000404502D14FF0090801E04FF00A0808FAF8
:101C100007F848EA0608CCF80888DAF80060574662
:101C2000D1F804C09E435FEACC3C00D51E433E6021
:101C3000DBF800605F46D1F804C09E435FEA8C3C4D
:101C400000D51E433E60DEF800607746D1F804C040
:101C50009E435FEACC2C00D51E433E60084F0C37F4
:101C60003E68D1F804C09E435FEA8C2C00D51E4329
:101C70003E60521C102AFFF411AFBDE8F88F00003F
:101C8000003C014044380240003001400000024066
:101C90000004024000080240000C02400010024014
:101CA0000014024000180240001C024000200240C4
:101CB000002402400069084000D0012070470AB1AA
:101CC000816170470904FBE70148806870470000A4
:101CD0000C0000200248816802781144816070473E
:101CE0000C0000200B4810B5016841F40071016040
:101CF000016841F480610160016841F48071016014
:101D0000032000F06FF8002000F006F800F024F83F
:101D1000002010BD003C024070B50D4D04464FF44C
:101D20007A712878B1FBF0F00A490968B1FBF0F04C
:101D300000F00CFB48B9102C07D200222146501E9F
:101D400000F030F800206C6070BD012070BD000014
:101D50000C000020180000200A4808B5016841F472
:101D600080410160006800F4804000900548001F39
:101D7000016841F080510160006800F080500090DF
:101D800008BD000044380240002809DB00F01F02B3
:101D9000012191404009800000F1E020C0F80011CD
:101DA00070470000F0B40E4B1B680C46C3F30223CF
:101DB000C3F10705042D00D90425191D072901D2F7
:101DC000002300E0DB1E012606FA05F1491E214032
:101DD00099409E40761E16403143F0BC02F09CBBF9
:101DE0000CED00E0064900F0070208684FF6FF031B
:101DF000184040EA0220034A104308607047000080
:101E00000CED00E00000FA052DE9F0470E46050054
:101E100065D0DFF81481D8F80000F7B200F00F00A9
:101E2000B04207D288F80070D8F8000000F00F0028
:101E3000B04254D128683D4C810712D5400703D5E4
:101E4000206840F4E05020602878000703D520681F
:101E500040F4604020602068A96820F0F00008434A
:101E600020602878C0072DD03049686808390128DB
:101E700012D0022813D0032811D00968890700293D
:101E80002DDA216821F0030101432160FFF71CFFD7
:101E9000814641F2883A0EE009688903EFE7096854
:101EA0008901ECE7FFF710FFA0EB0901514502D9CA
:101EB0000320BDE8F0872068696800F00C00B0EBF3
:101EC000810FEFD1D8F80010404601F00F01B14268
:101ED00007D90770006800F00F00B04201D0012060
:101EE000E7E72878400705D52068E96820F4E05046
:101EF000084320602878000706D52068296920F467
:101F0000604040EAC100206000F038F82168084ACB
:101F1000C1F30311515CC8400649086006480068D7
:101F2000FFF7FAFE0020C4E7003C024008380240F8
:101F30006E5C0008180000201000002004480549CD
:101F400000680968044AC1F38221515CC8407047A7
:101F500018000020083802407E5C0008044805494B
:101F600000680968044AC1F34231515CC8407047B7
:101F700018000020083802407E5C0008154810B5A3
:101F8000006810F00C02144813D01449042A0FD032
:101F9000082A0ED10F4C241F2268236802F03F024A
:101FA0005B0207D52068C0F38810A0FB010106E0A2
:101FB000084610BD2168C1F38811A1FB0001002370
:101FC000FEF764F92168C1F30141491C4900B0FBE7
:101FD000F1F010BD083802400024F400001BB700E7
:101FE0002DE9F84F04006ED02078DFF84C93C0073D
:101FF000A9F104054AD009F104000168C1F3810187
:10200000012908D00068C0F3810002280AD1D9F85C
:102010000000400206D52868800337D56068002894
:10202000E1D033E06068B0F5803F10D0B0F5A02F6C
:10203000286810D020F480302860286820F48020A0
:1020400028606068A8B1FFF73FFE06460DE02868EB
:1020500040F48030F4E740F480202860F7E700BFC8
:10206000FFF732FE801B642873D828688003F7D5F9
:102070000CE0FFF729FE064605E000BFFFF724FE4F
:10208000801B6428F0D828688003F7D42078DFF814
:10209000AC8280074FF0000A3ED5A748001D0168BA
:1020A00011F00C0F08D00068C0F3810002280BD19A
:1020B000D9F80000400207D42868800716D5E068E8
:1020C000012800D112E033E1E068B8B10120C8F87E
:1020D0000000FFF7F9FD064605E000BFFFF7F4FD3D
:1020E000801B0228C0D828688007F7D52868216996
:1020F00020F0F80040EAC10028600DE0C8F800A018
:10210000FFF7E2FD064604E0FFF7DEFD801B022834
:102110001FD828688007F7D42078000722D5864F7B
:1021200087486169703771B101210160FFF7CCFD0B
:10213000064604E0FFF7C8FD801B022809D838686E
:102140008007F7D50EE0C0F800A0FFF7BDFD0646FA
:1021500005E082E0FFF7B8FD801B02287DD83868D3
:102160008007F7D42078400768D5DFF8CCB1002786
:102170000BF13C0BDBF80000C0000BD4DBF80010C7
:1021800041F08051CBF80010DBF80000012700F08F
:10219000805000906B4E3068C00510D4306840F419
:1021A00080703060FFF790FD009005E0FFF78CFD38
:1021B0000099401A022850D83068C005F6D55E4E06
:1021C000A0686C3601280FD00528306810D020F0A8
:1021D00001003060306820F004003060A068B8B1C1
:1021E000FFF772FD00900FE0306840F00100F4E767
:1021F00040F004003060F7E7FFF766FD0099411AF0
:1022000041F28830814266D830688007F4D50EE00C
:10221000FFF75AFD009007E0FFF756FD0099411ABD
:1022200041F28830814256D830688007F4D42FB10B
:10223000DBF8001021F08051CBF80010A069C8B382
:102240003D49091D0968C1F3810102294AD00228CC
:10225000504607D0C8F8600000E03CE0FFF734FDCE
:1022600004463BE04746C8F86000FFF72DFD0646F0
:1022700005E000BFFFF728FD801B02282BD8286847
:102280008001F7D4D4E907010843A16A2E4A49081E
:1022900002EB0141626A41EA8211084394F82C1072
:1022A00040EA0161C9F8001001203866FFF70CFD13
:1022B000044606E03EE000BFFFF706FD001B0228D3
:1022C00009D828688001F7D534E000BFFFF7FCFC8F
:1022D000001B022802D90320BDE8F88F286880017E
:1022E000F4D427E00128F7D0D9F80000E26900F41F
:1022F000800191421CD1226A00F03F01914217D126
:1023000047F6C071626A0140B1EB821F10D1A26A28
:102310004FF0FF3300F4403103EB5202B1EB024FB8
:1023200006D194F82C1000F07060B0EB016F01D072
:102330000120D1E70020CFE70438024000004742E7
:10234000800E4742007000400000FFFF10B5401EA5
:10235000B0F1807F01D3012010BD4FF0E024606117
:102360000F21601702F0D8F80020A061072020613B
:10237000002010BD7047704770B590F83C20012ACE
:1023800032D0012480F83C40022280F83D200368CE
:102390005A689D6822F070060A6832435A60134BEF
:1023A00002689A4214D0B2F1804F11D0104B9A4279
:1023B0000ED0104B9A420BD00F4B9A4208D00F4BC5
:1023C0009A4205D00E4B9A4202D00E4B9A4204D14B
:1023D000496825F080031943916080F83D40002151
:1023E00080F83C10084670BD022070BD000001401E
:1023F0000004004000080040000C004000040140C0
:10240000004001400018004010B5040003D094F8CB
:102410003D0010B107E0012010BD002084F83C0011
:10242000204600F01FF8022084F83D00211D20689E
:1024300001F07AFC012084F8460084F83E0084F81C
:102440003F0084F8400084F8410084F8420084F89A
:10245000430084F8440084F8450084F83D000020DF
:1024600010BD000008B501681948B1F1804F14D0C3
:10247000184A914220D1016841F0020101600068D0
:10248000002200F00200009001211D20FFF78AFCCD
:102490001D20BDE80840FFF777BC016841F001014D
:1024A00001600068002200F00100009001211C2062
:1024B000FFF778FC1C20ECE7074A914207D101683E
:1024C00041F008010160006800F00800009008BDBC
:1024D0004038024000040040000C004090F83D10DD
:1024E000012901D001207047022180F83D100168C8
:1024F000CA6842F00102CA6000681149884214D0DB
:10250000B0F1804F11D00F4988420ED00E49884259
:102510000BD00E49884208D00D49884205D00D499C
:10252000884202D00C49884204D1816801F0070139
:10253000062903D0016841F00101016000207047C5
:10254000000001400004004000080040000C004072
:1025500000040140004001400018004070B50446EE
:1025600090F83C000025012817D0012684F83C6033
:10257000022084F83D002068826822F0770222F46D
:102580007F4282600868502838D00DDC20284FD068
:1025900005DC90B3102811D14AE0022070BD30282C
:1025A00046D040280AD13BE060282FD070280DD0BB
:1025B000B0F5805F03D0B0F5005F12D0012584F83C
:1025C0003D60002084F83C00284670BDCB68D1E90E
:1025D0000121206801F019FC2068816841F0770131
:1025E00009E0CB68D1E90121206801F00EFC2068E8
:1025F000816841F480418160E1E719E0CA68496877
:10260000206801F0D7FC5021206806E0CA684968BC
:10261000206801F0E0FC6021206801F000FCCEE7BA
:10262000CA684968206801F0C5FC40212068F4E7C9
:10263000226801461046F0E7704770B5044600680E
:1026400001694FF00005C943890715D4C168C94322
:10265000890711D4E91E0161012020772068806973
:102660008007204602D0FFF7E7FF04E000F0D8F82B
:10267000204600F06AF9257720680169C9434907B7
:1026800017D4C168C943490713D46FF0040101612D
:10269000022020772068806910F4407F204602D015
:1026A000FFF7CAFF04E000F0BBF8204600F04DF948
:1026B000257720680169C943090716D4C168C94351
:1026C000090712D46FF00801016104202077206807
:1026D000C0698007204602D0FFF7AEFF04E000F09B
:1026E0009FF8204600F031F9257720680169C94339
:1026F000C90617D4C168C943C90613D46FF01001C5
:102700000161082020772068C06910F4407F2046CE
:1027100002D0FFF791FF04E000F082F8204600F0BD
:1027200014F9257720680169C943C90708D1C16830
:10273000C943C90704D1891E0161204600F06AF926
:1027400020680169C943090609D4C168C94309065B
:1027500005D46FF0800101612046FFF70BFE206871
:102760000169C943490609D4C168C943490605D46A
:102770006FF040010161204600F04DF920680169C9
:10278000C94389060BD4C168C943890607D46FF0D1
:10279000200101612046BDE87040FFF7ECBD70BD2F
:1027A00030B587B0044614216846FDF7E6FD24687D
:1027B0000021174802220123B4F1804F16D0154D95
:1027C000AC4211D1046844F4807404600068009342
:1027D00000F480700590CDE90121CDE903120E4887
:1027E000694600BFFFF74CF907B030BD046844F0FC
:1027F00001040460006800F00100059003200090CF
:10280000CDE90121CDE9031369460448EAE7000058
:1028100030380240000C004000200240000002401E
:10282000704770B5044690F83C0000260D4601281C
:102830000FD0012084F83C006AB1042A1DD0082A78
:102840002FD00C2A3FD00126002084F83C003046CF
:1028500070BD022070BD206801F0EAFA206881692D
:1028600041F0080181612068816921F004018161E2
:10287000206881692A69114311E0206801F008FB92
:102880002068816941F4006181612068816921F4D7
:1028900080618161206881692A6941EA0221816140
:1028A000D2E7206801F02AFB2068C16941F00801E5
:1028B000C1612068C16921F00401C1612068C1695A
:1028C0002A69114311E0206801F04CFB2068C169BE
:1028D00041F40061C1612068C16921F48061C16176
:1028E0002068C1692A6941EA0221C161ACE710B5DB
:1028F000040003D094F83D0010B107E0012010BDA2
:10290000002084F83C00204600F01EF8022084F8E5
:102910003D00211D206801F007FA012084F84600DF
:1029200084F83E0084F83F0084F8400084F84100B9
:1029300084F8420084F8430084F8440084F8450099
:1029400084F83D00002010BD7047704710B5044664
:10295000022249B104290ED0082913D094F841006D
:10296000012816D0012010BD94F83E000128F9D1AD
:1029700084F83E200FE094F83F000128F2D184F85B
:102980003F2008E094F840000128EBD184F8402073
:1029900001E084F841200122206801F029FA16495B
:1029A0002068164A884201D0904203D1436C43F418
:1029B000004343642068884213D0B0F1804F10D0A8
:1029C0000F4988420DD00F4988420AD00E498842EB
:1029D00007D0904205D00D49884202D00C49884268
:1029E00004D1816801F00701062903D0016841F094
:1029F00001010160002010BD000001400004014001
:102A00000004004000080040000C0040004001406D
:102A10000018004070477047704710B504460068C2
:102A2000406994F83D10C0F3C010212911D180B144
:102A30002068143050E8001F21F0800140E80012A7
:102A4000002AF5D1606B08B1FEF74DFE204601F07B
:102A500099FB2068406994F83E10C0F38010222949
:102A600011D180B12068143050E8001F21F04001DE
:102A700040E80012002AF5D1A06B08B1FEF733FE42
:102A8000204601F058FB002010BD7047F8B50168E2
:102A900004460868CA684B6910F00F0F4FF0000534
:102AA00059D003F0010602F49077374365D0C1078F
:102AB00005D0D10503D5216C41F001012164410706
:102AC00005D5D90703D0216C41F0020121648107AB
:102AD00005D5D90703D0216C41F004012164010719
:102AE00007D502F02001314303D0216C41F00801E9
:102AF0002164216C00293AD0800604D5900602D5C5
:102B0000204601F04DFB20684069216CC0F3801025
:102B1000090700D460B3204601F00DFB206840692E
:102B2000400621D52068143050E8001F21F04001F4
:102B300040E80012002AF5D1A06BA8B16C490165EC
:102B4000A06BFEF719FE002811D0A06B016D01B03B
:102B5000BDE8F040084783060FD593060DD5204603
:102B6000BDE8F84001F01CBB2046FFF78EFFF8BD22
:102B70002046FFF78AFF2564F8BD266B2023012E2F
:102B800079D1C60677D5D60675D50868486800900D
:102B90004869400640D5A16B086840680004000CF5
:102BA000EAD0A28D8242E7D9E085C869B0F5807F7E
:102BB0002DD020680C3050E8001F21F4807140E8CF
:102BC0000012002AF5D12068143050E8001F21F0CF
:102BD000010140E80012002AF5D12068143050E8C5
:102BE000001F21F0400140E80012002AF5D184F8CE
:102BF0003E30256320680C3050E8001F21F01001A2
:102C000040E80012002AF5D1A06BFEF76CFDA08D04
:102C1000E18D401A81B229E0A08DE18D401A81B288
:102C2000E08D0028A8D00029A6D020680C3050E8FC
:102C3000002F22F4907240E80026002EF5D1206883
:102C4000143050E8002F22F0010240E80026002E48
:102C5000F5D184F83E30256320680C3050E8002F11
:102C600022F0100240E80023002BF5D12046FFF7A8
:102C7000D3FEF8BDFFE705062BD5150629D594F838
:102C80003D002128F5D1A068B0F5805F01D1206911
:102C9000B0B1206A411C2162216800784860E08C54
:102CA000401E0004000CE084E3D12068C16821F0DC
:102CB0008001C1602068C16841F04001C160D8E76F
:102CC000206A0088C0F308004860206A801C2062E7
:102CD000E5E74006CDD55006CBD5CA68204622F0A0
:102CE0004002CA6084F83D3000F04FF9C1E70000AF
:102CF0004140000870B5040004D094F83D00002560
:102D000010B106E0012070BD84F83C50204600F070
:102D100023F8242084F83D002068C16821F4005184
:102D2000C160204601F09CFA2068016921F49041BD
:102D300001612068416921F02A0141612068C16870
:102D400041F40051C1602564202084F83D0084F8DE
:102D50003E00002070BD00002DE9F04786B005461A
:102D600014216846FDF709FB7348DFF8C8C12B68DA
:102D7000002403210222061587154FF008094FF0A1
:102D8000206A63453DD16C4B1033D3F800C04CF042
:102D9000004CC3F800C01B6803F0004305930368B0
:102DA00043F010030360006800F0100005908DE808
:102DB0001600CDE9031969466048FEF761FEDFF8A9
:102DC00084815F494046C8F80010C0E901A4C0E909
:102DD0000346C8F81440C0E90647C8F82040C8F8C0
:102DE0002440FEF7ABFD08B1FDF723FFC5F838809E
:102DF000002211465320C8F83850FEF7D3FF532065
:102E00004BE0DFF84481DFF830C143450CF1140C8E
:102E100048D1DCF8003043F01003CCF80030DCF887
:102E2000003003F010030593036843F002030360CE
:102E3000006800F002000590C0208DE81500072012
:102E4000CDE9031069464148FEF71AFEDFF8F48029
:102E50003F4908F160084046C8F800104FF0006193
:102E6000C0E90114C0E90346C8F814404FF44031EA
:102E7000C8F81840C8E90771C8F82440FEF75EFD9D
:102E800008B1FDF7D6FEC5F838800022114625208E
:102E9000C8F83850FEF786FF2520FEF775FF06B00C
:102EA000BDE8F087DFF8AC804345F8D1DCF80030AE
:102EB00043F02003CCF80030DCF8003003F02003AE
:102EC0000593036843F0400303600068CDE90241C5
:102ED00000F0400005904FF48440CDE90002CDF8A9
:102EE000109069461C48FEF7CBFDDFF85880184962
:102EF00008F1C00818394046C8F80010C0E901A41C
:102F0000C0E90346C8F81440C0E90647C8F82040A5
:102F1000C8F82440FEF712FD08B1FDF78AFEC5F897
:102F20003880002211464720C8F83850FEF73AFF93
:102F30004720B2E7007C00403038024000100240D9
:102F4000A06002405802002000100140000402402E
:102F500040640240001401400018024090F83E30E6
:102F6000202B0ED159B152B190F83C30012B08D032
:102F7000012380F83C300023036301F0F7B90120FE
:102F8000704702207047704770477047FEE70000A7
:102F90000E4808B500680168C943C90615D4016820
:102FA000406800900948FFF738FD0948006840680C
:102FB000C0F116000B2801D1FDF752FEBDE8084014
:102FC000162204490148FFF7C9BF08BD8C01002043
:102FD00058020020FC0400200E4808B50068016873
:102FE000C943C90615D40168406800900948FFF735
:102FF00014FD094800684068C0F116000B2801D193
:10300000FDF78AFEBDE80840162204490148FFF793
:10301000A5BF08BD140200201803002012050020DF
:10302000104808B500680168C943C90618D401688A
:10303000406800900B48FFF7F0FC0B4800684068C0
:10304000C0F12400122804D1084901200860FDF7CE
:10305000C7FCBDE80840242205490248FFF77EBFAF
:1030600008BD0000D0010020B80200201C00002094
:1030700078030020174910B58A8DC88D4FF00003E2
:1030800052EA0004144808D012B14EF6405201E052
:103090004FF49652A0F86C2001E0A0F86C308A7CC6
:1030A000C97C52EA01040D49B1F900100FD032B1C8
:1030B0004FF6C01220F8842F01F5C86105E04FF4E7
:1030C000C86220F8842FA1F5C861018310BD20F8E3
:1030D000843FFAE79C0300203C04002054000020B9
:1030E0000648018E408E084306D009B1044801E02D
:1030F00040F2B63000F006B800F066B89C0300203D
:103100004AFCFFFF002801DD00F080B803DAC0F1BF
:10311000000000F005B801D100F056B8704700007B
:1031200070B50E4D0446012204212846FEF7C7FD66
:10313000002280212846FEF7C2FD012220212846D8
:10314000FEF7BDFD002240212846FEF7B8FD0448E9
:1031500001684C630068846370BD00000020024079
:10316000B400002010B500211448FFF7EFFB042144
:103170001248FFF7EBFB124C012204212046FEF718
:103180009EFD012208212046FEF799FD0D4C0122EB
:1031900004212046FEF793FD002208212046FEF779
:1031A0008EFD012210212046FEF789FD20460022D7
:1031B000BDE810402021FEF782BD0000B4000020D1
:1031C00000000240001C024010B50E4C00220421F9
:1031D0002046FEF774FD002280212046FEF76FFD99
:1031E000002240212046FEF76AFD002220212046D1
:1031F000FEF765FD044900200A685063096888638A
:1032000010BD000000200240B400002070B50E4D3B
:103210000446002204212846FEF751FD01228021A8
:103220002846FEF74CFD002220212846FEF747FDE8
:10323000012240212846FEF742FD044801684C6304
:103240000068846370BD000000200240B4000020CC
:103250000B4810B50B4A03680021B2F96C0043B16A
:10326000094C936EA34203DA002801DAA2F86C102D
:1032700010BD002801DDA2F86C10916610BD0000A1
:10328000580000203C040020A0E7DCFF0F4810B5E8
:103290000D4901600621416000214FF40032816038
:1032A000C0E9031212014261017601224276827660
:1032B000C17601774177FDF7E6FF002803D0BDE82E
:1032C0001040FDF7B6BC10BD006400406400002053
:1032D0000F4810B50D4901600621416000214FF4EF
:1032E00000328160C0E903121201426101760122BD
:1032F00042768276C17601774177FDF7C4FF0028D8
:1033000003D0BDE81040FDF794BC10BD006800403C
:103310008C000020154808B5016841F48001016067
:10332000016801F480010091016841F4001101601D
:103330000068002200F40010009011461120FEF7F2
:1033400031FD1120FEF720FD002211463920FEF745
:1033500029FD3920FEF718FD002211463A20FEF71C
:1033600021FDBDE808403A20FEF70EBD303802408E
:103370002DE9F04786B014216846FCF7FEFF4A4865
:103380000026016841F010010160016801F01001A0
:103390000591016841F040010160016801F04001C0
:1033A0000591016841F001010160016801F001012E
:1033B0000591016841F002010160016801F002011C
:1033C0000591016841F008010160016801F0080100
:1033D0000591016841F480710160016801F4807118
:1033E0000591016841F080010160016801F08001F0
:1033F0000591016841F0200101600068DFF8AC80B0
:1034000000F0200005900022E4214046FEF757FC22
:103410000122570239464046FEF751FCDFF89090F2
:1034200001223C214846FEF74AFCDFF888A0012231
:103430000C215046FEF743FC0224E42001250394AE
:103440008DE8610069464046FEF71AFBCDE900753C
:10345000CDE9025469464046FEF712FB3C20CDE917
:103460000005CDE9025469464846FEF709FB6002B3
:10347000CDE90006694602940F48FEF701FB4FF4C0
:1034800040408DE85100CDE9036469460B48FEF7E2
:10349000F7FA0C2003948DE8610069465046FEF768
:1034A000EFFA06B0BDE8F087303802400020024055
:1034B000001C02400000024000140240000C0240C8
:1034C00010B58EB000240794089409940A940B94C4
:1034D0001C2168460C94FCF750FF22484FF08041B5
:1034E00001605321C0E9011440F2E731C0E903143F
:1034F00080218161FEF788FF08B1FDF79AFB4FF448
:103500008050079007A91748FFF728F808B1FDF782
:1035100090FB1448FFF7EBF908B1FDF78AFB0B9419
:103520000BA910480C94FEF727FF08B1FDF781FBAB
:103530006020CDE900040294002269460948049401
:10354000FFF76FF908B1FDF774FB042269460548DF
:10355000FFF767F908B1FDF76CFB0248FFF720F9A8
:103560000EB010BDB400002010B586B0002417487E
:103570000094019402940394049413490594016007
:103580005321C0E9011442F20F71C0E903148021F4
:103590008161FEF739FF08B1FDF74BFB4FF4805016
:1035A000009069460948FEF7D9FF08B1FDF741FBD5
:1035B000049404A905480594FEF7DEFE002801D016
:1035C000FDF737FB06B010BD00040040FC000020F2
:1035D00010B58EB000240794089409940A940B94B3
:1035E0001C2168460C94FCF7C8FE1E481C4901606B
:1035F0005321C0E9011444F61F61C0E9031484613A
:10360000FEF702FF08B1FDF714FB4FF4805007905E
:1036100007A91448FEF7A2FF08B1FDF70AFB1148FD
:10362000FFF765F908B1FDF704FB0B940BA90D48F2
:103630000C94FEF7A1FE08B1FDF7FBFA6020CDE97E
:10364000000402940C22694606480494FFF7E9F846
:1036500008B1FDF7EEFA0348FFF7A2F80EB010BD6F
:10366000000C0040440100200C4810B50A490160DC
:103670004FF4E1314160002181600C22C160C0E95A
:1036800004128161C161FFF735FB002803D0BDE85A
:103690001040FDF7CEBA10BD007C00408C01002028
:1036A0000E4810B50C4901600D4941604FF480513E
:1036B000816000214FF48062C0E903120C22C0E94E
:1036C0000521C161FFF716FB002803D0BDE81040BB
:1036D000FDF7AFBA10BD000000100140D00100207E
:1036E000A08601000C4810B50A4901604FF4E13191
:1036F0004160002181600C22C160C0E90412816137
:10370000C161FFF7F7FA002803D0BDE81040FDF7CC
:1037100090BA10BD0014014014020020FEE7000022
:1037200010B54FF480610348FEF7C4FA02490860FF
:1037300010BD0000001402405800002030B40A4CB4
:10374000050A25706070080AA070E170100A2071E7
:103750006271180AA071E371224630BC002303494C
:103760000348FDF733BB00002C000020EC030020D1
:103770006400002070B50D4C050A25706070080AC1
:10378000A070E170100A20716271180AA071E371D3
:103790000023224606490748FDF718FB2246BDE8EC
:1037A0007040002302490448FDF710BB340000209C
:1037B000D4030020640000208C00002010B5FDF729
:1037C0006FF800F01BFC00F01DF900F029F9022150
:1037D0000448FDF7E9FABDE8104002210248FDF770
:1037E000E3BA0000640000208C000020FEE710B562
:1037F00003468488012004B1D880DC88002C26D0C0
:103800000C7B14B91C88CC80087318888880CC88FD
:10381000001B00B20881002801DD821A00E002448A
:103820000A80488010B2FCF71AFE0246B1F9020085
:10383000FCF715FE824201DA088800E048884881DA
:10384000B1F90A209868104498608888C88010BD33
:1038500070470000194810B501684FF47A72914220
:1038600001D2012000E000201E2901D9012100E041
:103870000021084012490968914201D2012200E06A
:1038800000221E2901D9012100E000210A400D4C2F
:10389000104306D0002204212046FEF710FA002231
:1038A00005E0012204212046FEF709FA0122204604
:1038B000BDE810401021FEF702BA000020000020F1
:1038C00024000020001C024070B51B48B0F87E1098
:1038D000A9B10021B0F896209AB1002211434FF00F
:1038E000000203D0A0F88420A0F89C201349B0F96E
:1038F0007C30B1F90040A34205D1012504E001214B
:10390000E8E70122EAE70025B0F99440B1F9026046
:10391000B44201D1012600E00026354302D04D68B3
:103920006D1C00E001254D600B804C80322D02DDC6
:1039300020F8842F028370BD3C0400205C0000202E
:1039400070B52148214C224D0068322826D9214AE1
:1039500000212148918191849187A2F85410A2F806
:103960006C10A2F88410A2F89C10A2F8B410018583
:10397000418501864186FFF727FC0022042120466D
:10398000FEF79DF9002210212046FEF798F900224B
:1039900008212846FEF793F900220FE001220421B6
:1039A0002046FEF78CF9012210212046FEF787F908
:1039B000012208212846FEF782F901222846BDE8A7
:1039C00070400421FEF77BB91C000020001C02405F
:1039D000000002403C0400209C030020074882B005
:1039E0000068016841680091C16841F01001C16040
:1039F00024220349014802B0FFF7B0BAD0010020E9
:103A000078030020054801210160002141608160A8
:103A1000C1600161416181617047000004040020C0
:103A2000054801210160002141608160C1600161A0
:103A30004161816170470000200400207047FEF75B
:103A400049B9000030B593B030216846FCF795FCC9
:103A500014210CA8FCF791FC1D480025016841F0D9
:103A600080510160006800F0805011901948016891
:103A700041F4404101600068022400F4404011908C
:103A800001200090000401908001CDE9064006204D
:103A90000890A820CDE9090404200B906846FEF7A1
:103AA0009FFA08B172B6FEE70CA90F2081E8310039
:103AB0004FF4A0500F904FF48050109005210CA8A7
:103AC000FEF7A2F9002801D072B6FEE713B030BDB0
:103AD00040380240007000400248016841F4700123
:103AE0000160704788ED00E0804810B50168491C0E
:103AF00001607F480168491C01607E480168491CDB
:103B0000016001F0D9FAFCF72DFFFDF73DF8FCF755
:103B1000F3FEFFF7AFFAFFF7E3FAFFF701FEFFF757
:103B200097FB01F061FA01F075FA734890ED010A14
:103B3000B1EE400ADFED710A00213720FCF77CFD71
:103B40006F4C20606F4890ED010AB1EE400ADFED46
:103B50006E0A00213720FCF7EFFD6060FFF7F0FEF2
:103B6000FFF7B2FE694CB4F9020000EE100AB4F996
:103B70000C00F8EEC00A00EE100A6548B8EEC00A64
:103B800000F05AFCB4F91A0000EE100AB4F924004F
:103B9000F8EEC00A00EE100A5D48B8EEC00A283000
:103BA00000F04AFCB4F9320000EE100AB4F93C000F
:103BB000F8EEC00A00EE100A5548B8EEC00A5030C0
:103BC00000F03AFCB4F94A0000EE100AB4F95400CF
:103BD000F8EEC00A00EE100A4D48B8EEC00A783080
:103BE00000F02AFCB4F9620000EE100AB4F96C008F
:103BF000F8EEC00A00EE100A4548B8EEC00AA03040
:103C000000F01AFCB4F97A0000EE100AB4F984004E
:103C1000F8EEC00A00EE100A3D48B8EEC00AC830FF
:103C200000F00AFCB4F9920000EE100AB4F99C000E
:103C3000F8EEC00A00EE100A3548B8EEC00AF030BF
:103C400000F0FAFBB4F9AA0000EE100AB4F9B400CF
:103C5000F8EEC00A00EE100A2E48B8EEC00A00F0D6
:103C6000EBFBFFF7F7FD2A4C94ED260ABDEEC00AE8
:103C700010EE100A94ED1C0A03B2BDEEC00A10EE5D
:103C8000100A94ED120A02B2BDEEC00A10EE100A3C
:103C900094ED080A01B2BDEEC00A10EE100A00B29F
:103CA000FFF74CFD94ED4E0ABDEEC00A10EE100A6F
:103CB00094ED440A03B2BDEEC00A10EE100A94ED72
:103CC0003A0A02B2BDEEC00A10EE100A94ED300AB4
:103CD00001B2BDEEC00A10EE100A00B2FFF74AFDB5
:103CE000BDE810400C48FEF7A8BC00001C000020F6
:103CF0002000002024000020280500200000C843E8
:103D00000400002034050020000016433C0400207D
:103D10007805002090060020B40000200148FEF73E
:103D20008CBC0000FC000020F0B50268254C264D3C
:103D3000264E274F274B4FF0804CA04209D06045BC
:103D400007D0A84205D0B04203D0B84201D0984273
:103D500004D122F0700E4A6842EA0E02A0421BD043
:103D6000604519D0A84217D0B04215D0B84213D040
:103D7000984211D0184DA8420ED0184DA8420BD031
:103D8000174DA84208D0174DA84205D0164DA8429D
:103D900002D0164DA84203D122F44075CA682A43C6
:103DA0004D6922F080022A4302608A68C2620A6872
:103DB0008262A04201D0984201D1096901630121C8
:103DC0004161F0BD000001400004004000080040D7
:103DD000000C00400004014000400140004401404C
:103DE0000048014000180040001C00400020004036
:103DF00010B501F01F030121046A99408C4304624D
:103E0000016A9A401143016210BD10B5846842EA0C
:103E1000032224F47F440A432243826010BD826857
:103E200022F070020A4342F00701816070470000EF
:103E3000F0B5026A22F001020262036A42688469F4
:103E4000124E24F073050C682C4323F002058B6896
:103E50002B430D4DA84201D0B04205D123F00807F5
:103E6000CB683B4323F00403A84201D0B04205D104
:103E70004D6922F4407215438A692A434260846185
:103E8000496841630362F0BD000001400004014045
:103E9000F0B5026A22F010020262026A4368846985
:103EA0000D6824F4E64444EA05248D6822F02002DB
:103EB00042EA05120F4D104EA84201D0B04206D181
:103EC000CF6822F0800242EA071222F04002A842A4
:103ED00001D0B04207D14D6923F4406343EA850322
:103EE0008D6943EA850343608461496881630262A6
:103EF000F0BD00000000014000040140F0B5026A7E
:103F000022F480720262026A4368C46922F4007279
:103F100024F073050C68124E2C438D6842EA05228A
:103F20000E4DA84201D0B04206D1CF6822F4006203
:103F300042EA072222F48062A84201D0B04207D1AF
:103F40004D6923F4405343EA05138D6943EA051391
:103F50004360C4614968C1630262F0BD0000014072
:103F60000004014030B5026A22F480520262046A01
:103F70004268C3690D6823F4E64343EA05238D686C
:103F800024F4005444EA0534084DA84202D0084DF8
:103F9000A84204D14D6922F4804242EA851242606F
:103FA000C36149680164046230BD00000000014043
:103FB0000004014010B5036A046A24F0010404629D
:103FC000846924F0F00444EA021423F00A020A434C
:103FD0008461026210BD10B5036A23F0100303620E
:103FE0008369046A23F4704343EA023224F0A00395
:103FF00043EA01118261016210BD00000A494FF4D9
:10400000007008220860002048608860C1E903024F
:104010000875183940F2FF13C1E900308860C1E922
:104020000302087570470000EC03002010B5FEF78E
:10403000AFFFBDE810400148FEF728BD8C0100200D
:1040400010B5806B0021C185C184FEF71EFD10BD37
:1040500070B5846B2068406994F83D10C0F3C010BF
:104060000025212904D118B1E584204600F08AF802
:104070002068406994F83E10C0F38010222904D1D2
:1040800018B1E585204600F056F8206C40F010008D
:1040900020642046FEF7F9FC70BD10B50146806B28
:1040A00009680968C9052FD40021C18501680C3150
:1040B00051E8002F22F4807241E80023002BF5D153
:1040C0000168143151E8002F22F0010241E8002379
:1040D000002BF5D10168143151E8002F22F0400285
:1040E00041E80023002BF5D1202180F83E10016B20
:1040F000012909D101680C3151E8002F22F010028A
:1041000041E80023002BF5D1016B012902D0FEF715
:104110003AFF10BD818DFEF77FFC10BD10B5806B9E
:10412000016B012902D0FEF72FFF10BD818D4908D8
:10413000FEF772FC10BD01680C3151E8002F22F42B
:10414000907241E80023002BF5D10168143151E849
:10415000002F22F0010241E80023002BF5D1016B72
:10416000012909D101680C3151E8002F22F0100219
:1041700041E80023002BF5D1202180F83E100021DA
:104180000163704701680C3151E8002F22F0C00232
:1041900041E80023002BF5D1202180F83D10704725
:1041A00008B590F83E10222901D0022008BD82688F
:1041B0004FF480539A4201D1016921B1816A9A4238
:1041C0001BD04AB10AE00268816A5268C2F3080251
:1041D0000A80816A891C08E0026972B1026852682B
:1041E00002F07F020A70816A491C8162C18D491EFA
:1041F0000904090CC18503D019E002685268F1E78F
:104200000168CA6822F02002CA600168CA6822F404
:104210008072CA6001684A6922F001024A61202165
:1042200080F83E10016B012903D0FEF7ACFE0020A0
:1042300008BD0021016301680C3151E8002F22F014
:10424000100241E80023002BF5D101680A68D2066C
:1042500002D50A6849680091818DFEF7DDFBE6E72B
:1042600070B5044600680169E26821F440511143C9
:1042700001612169A068E26908436169114308434B
:104280002168CA6849F20C639A430243CA602068F5
:104290004169A26921F440711143416131492068AB
:1042A000884202D03049884202D1FDF757FE01E032
:1042B000FDF744FEE2690023192164253226B2F598
:1042C000004F626828D0A0FB0101930F9200FBF71A
:1042D000DDFF0146B0FBF5F06FF01802504301EB33
:1042E000800006EB0010B0FBF5F000F0F002B1FB2F
:1042F000F5F002EB0012B1FBF5F06FF01803584334
:1043000001EB800006EB0010B0FBF5F000F00F00B1
:1043100021681044886070BDA0FB010192185B41C8
:10432000FBF7B4FF0146B0FBF5F00201B1FBF5F07D
:104330006FF01803584301EB800006EBC000B0FBA0
:10434000F5F000F0F80002EB4002B1FBF5F0584345
:1043500001EB800006EBC000B0FBF5F000F00700B9
:10436000D6E70000001001400014014038B581621A
:1043700082850025134604460564222084F83E0009
:10438000A26B1B48D063A26B1A481064A26B1A4838
:10439000D064A06B0A4605652168A06B091DFDF776
:1043A00037FB206801684068009084F83C50206822
:1043B0000C3050E8001F41F4807140E80012002AE0
:1043C000F5D12068143050E8001F41F0010140E8A9
:1043D0000012002AF5D12068143050E8001F41F087
:1043E000400140E80012002AF5D1002038BD00004D
:1043F0009B4000081D4100085140000810B5FEF721
:104400000FFEBDE810400148FEF740BBD001002080
:1044100010B5FEF7E1FDBDE810400148FEF736BBE0
:1044200014020020FEE7C0ED071A80ED092AC0ED56
:10443000052A80EC030A704790ED031A70EE600ABB
:1044400080ED041A80ED051AC0ED030A30EEC10AB2
:10445000D0ED001A20EE210AD0ED011A00EEA10ADB
:1044600070EE810AF0EE001A41EE610A90ED021A38
:1044700000EE810A80ED060AD0ED070AB1EE601A5F
:10448000B4EEC10AF1EE10FA02D2B0EE410A06E033
:10449000B4EEE00AF1EE10FA01DBB0EE600A80ED56
:1044A000060AD0ED080A70EE800AC0ED080A90ED09
:1044B000090AB1EE401AF4EEC10AF1EE10FA02D286
:1044C000B0EE410A06E0F4EEC00AF1EE10FA01DAAD
:1044D000B0EE600A80ED080A7047C0ED071A80ED63
:1044E000092A80EC030A704703B401984100009840
:1044F00050EAC12018BF04204A0D18BF40F0010047
:1045000040F2FF72B2EB515F08BF40F00200012899
:1045100008BF052002B070470907090E002804DB18
:1045200000F1E02080F80014704700F00F0000F167
:10453000E02080F8141D704710B5B94A2DED020B2C
:104540002DED0C8B82B00F9921F000409FEDB6CB82
:1045500090422CDBA0F140530E9AA3F17F631A43E3
:104560000FD0B349884202DC16D10E98A0B19DED60
:104570000E0B02B0BDEC0C8B02B0BDE8104000F099
:10458000A4BC0029C1BF9FEDAC0B02B0BDEC0C8BED
:1045900002B0C8BF10BD16E00120FBF71DFF02B03E
:1045A000BDEC0C8B02B0BDE8104000F0A5BCA44AE5
:1045B0009FEDA59B9FEDA6AB90425EDAA6499FEDCD
:1045C000A8CB814208DBB0EE4C0AF0EE6C0A02B0D8
:1045D000BDEC0C8B02B010BD9DED0E0B53EC102BFF
:1045E00051EC100B01F004F841EC180B9E48062129
:1045F000B0EE480AF0EE680A784400F0EAFB53ECAB
:10460000182B51EC100B00F0F3FF41EC1B0B9748FB
:10461000B0EE480AF0EE680A0421784400F0D9FBB5
:1046200053EC182B51EC100B00F0E2FF53EC192B5C
:1046300000F098FD41EC100B51EC1B0B53EC102BD0
:1046400000F038FE41EC100B53EC102B9DED0E0BDF
:1046500051EC100B00F0CCFF53EC1A2B01F0C6F814
:104660009DED0E1B53EC112B01F0C0F853EC1C2BED
:1046700001F0BCF841EC100BA9E79FED7D8B9FED9D
:104680007EBB9DED0E0B002953EC192B51EC100B4A
:1046900052DA00F067FD53EC182B00F0A9FF41EC53
:1046A000180B77480621B0EE480AF0EE680A784405
:1046B00000F08FFB53EC182B51EC100B00F098FF1F
:1046C00041EC1D0B6F48B0EE480AF0EE680A042179
:1046D000784400F07EFB53EC182B51EC100B00F0EB
:1046E00087FF53EC192B00F03DFD41EC190B51EC09
:1046F000180B00F0A9FC41EC180B53EC192B51ECF2
:104700001D0B00F0D7FD53EC182B00F071FF53EC9C
:104710001A2B01F043F941EC100B51EC180B53EC40
:10472000102B00F01FFD53EC1B2B00F061FF53EC2E
:104730001C2B01F05BF86DE001F058F853EC182BDE
:1047400000F056FF41EC180B00F07EFC41EC1A0B18
:1047500000208DED00AB00909DED000B51EC1A0B8D
:1047600053EC102B00F0FEFC9DED000B41EC1C0BFC
:1047700053EC102B51EC100B00F03AFF53EC182BBC
:1047800001F034F853EC1C2B00F094FD41EC1C0BB1
:104790003D48B0EE480AF0EE680A0621784400F081
:1047A00018FB53EC182B51EC100B00F021FF41ECDF
:1047B0001D0B3648B0EE480AF0EE680A0421784432
:1047C00000F007FB53EC182B51EC100B00F010FF1E
:1047D00053EC192B00F0C6FC41EC100B51EC1D0BF7
:1047E00053EC102B00F066FD53EC1A2B00F000FF89
:1047F00053EC1C2B00F0B6FC41EC100B53EC102BCF
:104800009DED000B51EC100B00F0ACFC53EC1B2B9E
:1048100000F0EEFE41EC100BD9E6000000000000B5
:104820000000F03F00000000182D4454FB21094017
:104830000000F07F00000000000000000000000009
:104840000000E03F00000000000000000000F03F1A
:10485000075C143326A6913C0000603C0000000079
:10486000182D4454FB21F93F8C1600009A160000C5
:10487000000000000000E03F0000000000000040D9
:10488000D6150000E4150000E8140000F61400003E
:1048900070B59B482DED020B2DED068B079D25F085
:1048A0000044A04218DC9748844202DC0AD10698F2
:1048B00040B19DED060BBDEC068B02B0BDE870402B
:1048C00000F003BB002DCCBF9FED8F0B9FED900B35
:1048D000BDEC068B02B070BD8F48A04215DD8F483D
:1048E000A042D8BF4FF0FF3458DD9DED060B51ECD0
:1048F000100BFFF7F9FD042808BF00F00DFB9DED3C
:10490000060BBDEC068B02B070BD9DED060B51ECA5
:10491000100B00F019FBCDE9060181489FED828B59
:10492000A0423CDD8248A0421FDD00249FED82AB07
:104930009DED060B53EC1A2B51EC100B00F012FC02
:104940009DED060B41EC190B53EC1A2B51EC100B9F
:1049500000F04EFE53EC182B01F020F853EC192B0D
:1049600000F0A8FCCDE9060149E09DED060B01240D
:1049700053EC182B51EC100B00F0F4FB9DED060BE3
:1049800041EC190B53EC182B51EC100B01F006F80D
:1049900053EC192B00F08EFCCDE906012FE068489E
:1049A000A0421FDD02249FED689B9DED060B53EC9A
:1049B000192B51EC100B00F01BFE53EC182B00F0E0
:1049C000D1FB9DED060B41EC180B53EC192B51EC70
:1049D000100B00F0E3FF53EC182B00F06BFCCDE95B
:1049E00006010CE09DED060B032453EC102B9FED0C
:1049F000580B51EC100B00F05DFCCDE906019DED6C
:104A0000060B53EC102B51EC100B00F0F1FD41ECB8
:104A1000180B53EC182B00F0EBFD41EC190B4E4832
:104A20000621B0EE490AF0EE690A784400F0D1F9A7
:104A300053EC182B51EC100B00F0DAFD41EC180B85
:104A40004648B0EE490AF0EE690A0521784400F0C4
:104A5000C0F953EC192B51EC100B00F0C9FD41ECDF
:104A6000100B51EC180B53EC102B002C0EDA00F04D
:104A700079FB9DED061B53EC112B00F0B9FD9DED6C
:104A8000061B53EC112B00F0B1FE35E000F06AFB81
:104A90009DED061B53EC112B00F0AAFD41EC100B11
:104AA0002F48784400EBC40090ED001B51EC100B34
:104AB00053EC112B00F072FF9DED061B53EC112BF4
:104AC00000F06CFF41EC100B2648784400EBC4006A
:104AD00090ED001B51EC100B53EC112B00F086FEF7
:104AE00041EC100B002DA2BFBDEC068B02B070BDD7
:104AF00051EC100B00F0F8FA41EC100B01E700004C
:104B0000000010440000F07F182D4454FB21F93FB1
:104B1000182D4454FB21F9BF0000DC3F0000203E6B
:104B20000000F33F00000000000000000000F03F24
:104B30000000E63F00000000000000000000004010
:104B40000080034000000000000000000000F83F6B
:104B5000000000000000F0BF12130000C8120000A7
:104B6000521200000A12000070B56B4E2DED040BBE
:104B70002DED028B82B0DDF81CC0DDE905235C421F
:104B80002CF000411C4341EAD474049D22F0004003
:104B9000B44205D86C422C4340EAD474B4420BD9D9
:104BA0009DED061B9DED040B02B0BDEC028B04B025
:104BB000BDE8704000F093B9ACF14054A4F17F64BB
:104BC0001C430BD0022404EAAC7444EAD2740543BB
:104BD0009FED538B9FED542B07D015E09DED040BFB
:104BE00051EC100B00F0A8F942E0002C11BF012C91
:104BF0009DED040B02B0BDEC028B04BF04B070BD90
:104C0000022C38D0032C3BD00B439FED491B9FED6A
:104C10004A0B0AD0B14218D1B04209D121F08041EB
:104C200020F08040079105900FE0002A15DA10E08F
:104C3000434B7B44002C08BF93ED000B0DD0012C9F
:104C400010D0022C17D0032C1AD0B0421DD1002A4C
:104C500003DAB0EE410AF0EE610A02B0BDEC028B5D
:104C600004B070BD93ED000B51EC100B00F03CFA5A
:104C700041EC100BF1E7B0EE480AF0EE680AECE701
:104C8000B0EE420AF0EE620AE7E7401A00153C284F
:104C9000C8BF8DED000B19DCBCF1000FBEBF10F1D9
:104CA0003C0F9FED290B8DED000B0FDB9DED060BEF
:104CB00053EC102B9DED040B51EC100B00F0FAFAA5
:104CC00000F042F900F038F9CDE90001002C08BFEE
:104CD0009DED000BC1D0012C10D0022C9FED1C0BC0
:104CE00053EC102B9DED000B51EC100B0DD000F090
:104CF00055FE53EC182B00F051FEB9E7019880F0F7
:104D0000004001909DED000BA7E700F047FE53EC3B
:104D1000182B00F06BFDABE70000F07F00000000F7
:104D2000182D4454FB210940182D4454FB2109C07F
:104D3000182D4454FB21F9BF182D4454FB21F93F91
:104D40003A11000000000000000000000000000018
:104D5000075C143326A6A13C00B52DED048BB0EE04
:104D6000409AF0EE609A83B051EC190B00F04AFDC6
:104D700041EC180B18EE100A18EE901A8DED008B0E
:104D8000002818BF0120084320F00040C0F17F60D8
:104D900000F1E040C00F14D019EE101A19EE900A7D
:104DA0008DED009B002918BF0121084320F0004031
:104DB000C0F17F6000F1E040C00F04BF0120FBF7AD
:104DC0000BFBB0EE480A03B0F0EE680ABDEC048BB2
:104DD00000BD70B504462DED028B4D1E00EBC500E5
:104DE000B0EE408AF0EE608A90ED000B35F00600E0
:104DF00017D053EC182B51EC100B00F0F9FB41ECE1
:104E0000100B6D1E04EBC50090ED001B51EC100B58
:104E100053EC112B00F0A6F941EC100B35F0060015
:104E2000E7D1022D36D0042D1CD0062D1CBFBDECC1
:104E3000028B70BD53EC182B51EC100B00F0D8FB1B
:104E400094ED0A1B53EC112B00F08CF953EC182B4A
:104E500000F0CEFB94ED081B53EC112B00F082F90F
:104E600041EC100B53EC182B51EC100B00F0C0FB75
:104E700094ED061B53EC112B00F074F953EC182B36
:104E800000F0B6FB94ED040B53EC102B00F06AF924
:104E900041EC100B53EC182B51EC100B00F0A8FB5D
:104EA00094ED021B53EC112B00F05CF953EC182B22
:104EB00000F09EFB94ED001B53EC112B00F052F917
:104EC000BDEC028B41EC100B70BD10B553EC102BF8
:104ED00051EC100B00F046F941EC100B10BD10B571
:104EE00053EC112B51EC100B00F03CF941EC100B82
:104EF00010BD0000000000009FED050B10B553EC45
:104F0000102B51EC100B00F0D5F941EC100B10BD3B
:104F100000000000000000009FED050B10B553ECF1
:104F2000102B51EC100B00F063FB41EC100B10BD8B
:104F3000000000000000001010B541EC100BFFF75E
:104F4000A7FC51EC100B10BD82B0CDE9000121F09F
:104F5000004001909DED000B02B051EC100B70472A
:104F6000FCF7C0FEFEF76EFDFEF702FAFEF7D2F97F
:104F7000FEF78CF9FEF794FBFEF7A2FAFEF7A8F90C
:104F8000FEF7F2FAFEF770FBFEF7ACFBFEF720FB34
:104F90001048FCF775FB1048FCF772FB0F48FDF753
:104FA0009DFA0F48FDF79AFAFEF718FDFEF706FC8A
:104FB000FEF7D8F8FBF740FEFBF79AFE0C210948F4
:104FC000FDF7C4FC07494FF4FA7009680864FBF761
:104FD0004BFAFEE7640000208C000020B4000020A3
:104FE000FC000020440100200848418C808C51EADC
:104FF0000002074808D011B14FF6445101E04FF4C8
:105000002F71A0F8B41070470021FAE79C0300202C
:105010003C0400200B480021D0F8B020B2F5902FBE
:1050200005DDB0F9B430002B01DDA0F8B41012F5A5
:10503000902F05DAB0F9B420002A01DAA0F8B410F4
:10504000704700003C04002000B52DED048B83B0B8
:1050500041EC190B00F0D6FB41EC180B18EE100ACE
:1050600018EE901A8DED008B002818BF0120084320
:1050700020F00040C0F17F6000F1E040C00F14D08C
:1050800019EE101A19EE900A8DED009B002918BF39
:105090000121084320F00040C0F17F6000F1E040B2
:1050A000C00F04BF0120FBF797F951EC180B03B0B8
:1050B000BDEC048B00BD00000948B0F97E10B0F9CA
:1050C000962011420AD050F8801F8069084440425F
:1050D0004FF4FA7190FBF1F002490880704700002C
:1050E0003C0400205400002081F00041704780F013
:1050F0000040704721F00041704720F000407047A9
:1051000021F00042A2F16052B2F5801F01F000438D
:1051100028BFD2F17F6C0BD95FEA001C43EAC202C0
:1051200042EB507018BF704728BF20F00100704755
:10513000B2F5801FBCBF184670474FEA410C1CF502
:10514000001F02D2084600F089BD70B500F0FAFADF
:1051500000000089FFF7F6BF4FF00040A0F5800087
:105160007047000010B591EA030F48BF83F0004379
:1051700000F11C84841A71EB030C05D2121943EB65
:105180000C03001B61EB0C01DFF824E14FEA115422
:10519000A4EB135C1EEA430F18BF9EEA445F73D072
:1051A00023EA0E03DCF1200E21EA045143F48013BC
:1051B00032D322FA0CFE10EB0E0023FA0CFE41EB68
:1051C0000E01CCF1200E03FA0EFE10EB0E0051F191
:1051D0000001B1F5801FCCF1200E32D201EB045159
:1051E00012FA0EF2BDE8104058BF7047401C38BF9D
:1051F0005FEA420218BF7047002814BF20F0010088
:1052000041F100014FEA410313F5001F38BF704719
:10521000A1F1C04100F0E4BA012A43EB0302ACF172
:10522000200CDCF11F0E32BF4FF0000E23FA0CF3FE
:1052300010EB030041EB0451B4EB115FD0D0A1EBB4
:10524000045101F5801149085FEA300001EB045177
:105250000ED350F1000038BF12FA0EFE08D1BDE89F
:105260001040C9E7401C38BF5FEA4202CAD1C3E719
:10527000BDE810404FEA410313F5001F38BF7047E7
:10528000A1F1C04100F0ACBA9EEA445F08D011EA37
:105290005E0FBDE8104004BF01F0004100207047E0
:1052A000BDE8104070B500F04DFA00BF64FBBE3E93
:1052B0000000E0FF2DE9C04130B4DFF8A0C23CEAB5
:1052C000111418BF3CEA131400F0EC8081EA0305C6
:1052D0001CEA111444EAD57418BF1CEA131500F037
:1052E000C780A4EB05044FF0004545EAC12145EA1B
:1052F000C32341EA505143EA525304F17F74994267
:1053000004F500344FEAC0204FEAC22208BF9042A1
:1053100000F09C804FEA13650FF24016765D4FEA6D
:10532000134506FB05F7C7F1807706FB07F74FEA41
:10533000D737A7FB03687642C8F58038A7FB06CEAF
:1053400038BFA8F1010807FB08E64FF0000EA6FBE6
:10535000028CE6FB03CEDCF1000CCEF1004E38BF30
:10536000AEF1010EA6FB0C584FF000074FF0000500
:10537000E6FB0E87A1FB08C6A0FB07CE16EB0E06C8
:1053800045F10005E1FB076515F1E04E7EBFA4F590
:1053900080345FEA46066D4116F1800745F100054D
:1053A0004FEA17274FEA066647EA0567A6F1DE4689
:1053B000B6F1805F4FEA15251FD9384624F0010C5D
:1053C00005EBC471BCF1FE6F01EB0C1102D8F0BC0F
:1053D000BDE8008124425CBF01F5801E9EEAC47FC7
:1053E00002D4F0BCBDE80081244238D4F0BCA1F165
:1053F000C041BDE8004100F0F3B94FEAD22242EAD1
:1054000043524FEAD323A7FB02864FEAD02040EA5B
:10541000415007FB03661EEA0E0F4FEAD12105FB40
:10542000026658BFA6EB0056B6EB00564FEA520E86
:105430004EEAC37E18EB0E0E56EB530EBDD518EB9D
:1054400002085E417F1C55F10005B6E74FF4801558
:105450004FF000074FF000064FF00008ADE7F0BC3A
:105460004FF0000001F1C04101F00041BDE80081B2
:1054700011EA0C1F0CEA131500D00CE013EA0C1F04
:1054800000F025804FF00000F0BC81EA030101F03C
:105490000041BDE80081F0BCBDE8004181EA0301A4
:1054A00000F09EB9F0BCBDE8004170B500F04AF9CB
:1054B000097EFC3E00F007B881EA03014FF00000CE
:1054C00001F00041704781EA030100F089B9F0BCA6
:1054D000BDE800414FF0000021497047FFFDFBF996
:1054E000F7F5F4F2F0EEEDEBE9E8E6E4E3E1E0DE17
:1054F000DDDBDAD8D7D5D4D3D1D0CFCDCCCBCAC889
:10550000C7C6C5C4C2C1C0BFBEBDBCBBBAB9B8B7AF
:10551000B6B5B4B3B2B1B0AFAEADACABAAA9A8A8A2
:10552000A7A6A5A4A3A3A2A1A09F9F9E9D9C9C9B70
:105530009A9999989797969595949393929191901B
:105540008F8F8E8E8D8C8C8B8B8A898988888787AC
:105550008685858484838382828181800000FF0721
:105560000000F87F4FEA41034FEA5353A3F58063ED
:10557000D3F11E03C8BFD3F1210C0CDD4FF0004264
:1055800042EAC12242EA505232FA03FC8CEAE17C40
:10559000ACEBE1707047102BC4BF0020704703F5DF
:1055A000787CBCF1FF3F04D06FF0004282EA21001A
:1055B000704770B500F0C6F849922480002070470B
:1055C000F2E710F0004248BF4042B0FA80F310FA10
:1055D00003F10AD0C3F11D0303F580634FEA415084
:1055E00002EB035202EBD12170474FF000007047ED
:1055F000DFF848C170B51CEA111E1EBF1CEA131566
:105600009EEA0C0F95EA0C0F00F06F8081EA03040C
:1056100023EA4C134EEAD47E21EA4C1141F4801166
:1056200043F48013AE44A1FB024CA0FB0365AEF132
:105630007F7E361955EB0C05A1FB034C4CF10003A2
:10564000A0FB021C16EB0C06654153F10003094256
:1056500018BF46F0010613F4007F0BD14FEA033167
:105660004FEA0530340341EA155140EA16506FF015
:1056700003020AE04FEAC3214FEAC520F40241EADF
:10568000555140EA56506FF0020202EB2E4201EBF8
:10569000025585EACE710AD05FEA440C18BF24F0A7
:1056A000004450F1000041F1000120EAD47040F2C2
:1056B000FE7C624500D270BDA84214BF4FF080440A
:1056C0004FF04044002E08BF0024BEF1806FA8BFF9
:1056D000A1F1C041BDE8704080F282804FF000002F
:1056E00001F1C04101F0004170479EEA0C0F0CEA45
:1056F000131518BF95EA0C0F06D04FF0000081EA91
:10570000030E0EF0004170BD00F01CF88900013E50
:1057100000F007B800F009B84FEA430C5FEA5C5CA0
:1057200008D081EA030100F05BB84FEA410C5FEA60
:105730005C5CF6D14FF00000014970470000FF07A4
:105740000000F87F0EF1020E2EF0030E5EF8046BDF
:10575000364205D4012A43EB030515F5001F12D884
:10576000012841EB010C1CF5001F0CD80ED14FEAAB
:10577000D17C15F5001F0CEB4C0C0CF1020C08BF92
:105780004CEBD37C04E04FF0080C01E04FEAD37CF3
:105790000CEB4C0526FA05F606F00706B6F1040CEC
:1057A00006D20EEB860CBDE870404CF0010C604751
:1057B000DFE80CF0090B02024FF000414FF000004F
:1057C000A1F5002170BD19461046012851EB0104D6
:1057D00018BFD4F5001484BF002001F0004170BD53
:1057E0000808A0F500114FEA3101704791EA030F54
:1057F00010B581F000413FF5BDAC83F0004300F0EF
:10580000D5B800002DE9F04101F5801CBCF5001F62
:10581000C0F2A9804FEA115C21EA0C510CF1FD0C99
:1058200041F480115FEA5C0C0CF5C07C01D34000B0
:10583000494130A4890241EA905187028E0E0A0C38
:10584000A45D04FB04F602FB06F6C6F14046A4FB89
:105850000662F60D46EA422606FB06F4A4FB012387
:105860005242C3F1404338BF5B1EA6FB02420024F4
:10587000E6FB0324D20B42EA4446A6FB0623A1FB27
:1058800002E2A3FB07E4E3FB61426442C2F1404E43
:1058900038BFAEF1010EA6FB04234FF00002E6FB79
:1058A0000E32A2FB03463400E2FB6264A1FB06E673
:1058B000A4FB07E8E4FB61687642C8F1405838BFB2
:1058C000A8F10108A2FB06E4A3FB08E5E2FB68548B
:1058D000A1FB05E6A7FB04E8E1FB648618F12005BF
:1058E00056F10006A809A8F11B08B10908F03F0805
:1058F000B8F10A0F40EA86601CD901EB0C51BDE8F3
:10590000F08100BFFCF5EEE8E2DDD8D3CFCBC7C312
:10591000C0BDB9B6B4B1AEACA9A7A5A3A19F9D9BCC
:105920009A9896959392908F8D8C8B89888786858F
:1059300084838281A0FB006800FB01F208EB42082F
:10594000B8EB872807D5341858EB0104D5D5401C8F
:1059500051F10001D1E7341A78EB0104CDD4401E97
:1059600071F10001C9E75FEA4C0C5FEA9C5C0DD164
:1059700005D34FF0000001F00041BDE8F081BDE823
:10598000F04170B5FFF7DEFE6DDBFFBEBDE8F04114
:105990004FF00000004970470000F87F10B591EA11
:1059A000030F48BF83F000433FF5E4AB841A71EB6B
:1059B000030C07D212198CF0004C43EB0C03001BB4
:1059C00061EB0C01DFF8A4E14FEA1154A4EB135C86
:1059D0001EEA430F18BF9EEA445F00F0B08023EA3E
:1059E0006E03524221EA0451C3EB6E0338BF5B1EC3
:1059F000DCF1200E25D322FA0CFE10EB0E0043FA48
:105A00000CFE41EB0E01CCF1200E03FA0EFE10EB62
:105A10000E0051F10001CCF1200E29D412FA0EF241
:105A200001EB0451BDE8104058BF7047401C1CBF3B
:105A3000B2F1004F704700280CBF491C20F0010054
:105A4000704712EB020E43EB030218BF4FF0010E3A
:105A50004EEA4202ACF1200CDCF11E0E54D943FA9E
:105A60000CFE10EB0E0051F1FF31CCF11E0ED5D51E
:105A70000EF1010E12FA0EFE404141EB010101EB65
:105A8000445C5FEA5C5C10D910EBDE7001EB045102
:105A900038BFBEF1004FBDE8104018BF7047002866
:105AA0000CBF491C20F00100704730D24FEAD42CC3
:105AB00011F5001124F400641BD0B1FA81F20B3A05
:105AC000A41AA41ED2F12003914030FA03F3194323
:105AD000904001EBCC71002C01EB0451BDE810406B
